:100000000C94D4000C94F1000C94F1000C94F100C9
:100010000C94F1000C94F1000C94F1000C94F1009C
:100020000C94F1000C94F1000C94C40B0C94F100AE
:100030000C94F1000C94BB0C0C94F1000C94F100A6
:100040000C94F1000C94F1000C94F1000C94F1006C
:100050000C94F100EF01FF010F0215021B022402B4
:100060002D0236023F0202030203020302030203CF
:1000700002030203480251025A0263026C02750233
:100080008A029A02A302AC02B502BE02C702D002E3
:10009000D902020302030203020302030203020362
:1000A000E202EB02F4026E616E00696E66000040CF
:1000B0007A10F35A00A0724E18090010A5D4E80077
:1000C00000E87648170000E40B54020000CA9A3B8F
:1000D000000000E1F5050000809698000000404215
:1000E0000F000000A08601000000102700000000A3
:1000F000E803000000006400000000000A000000A7
:1001000000000100000000002C76D888DC674F0852
:1001100023DFC1DFAE59E1B1B796E5E3E453C63A58
:10012000E651997696E8E6C28426EB898C9B62EDCF
:10013000407C6FFCEFBC9C9F40F2BAA56FA5F49089
:10014000055A2AF75C936B6CF9676DC11BFCE0E400
:100150000D47FEF520E6B500D0ED902E0300943556
:1001600077050080841E080000204E0A000000C8A9
:100170000C333333330F986E12831141EF8D2114FA
:10018000893BE65516CFFEE6DB18D1844B381BF7CA
:100190007C1D901DA4BBE424203284725E22810069
:1001A000C9F124ECA1E53D2711241FBECFE5D8E01D
:1001B000DEBFCDBF13E0A0E6B0E0ECE4F8E202C0A1
:1001C00005900D92AC34B107D9F723E0ACE4B3E06D
:1001D00001C01D92AB39B207E1F70E94B8030C943D
:1001E00024140C940000CF93C0917203C5FF06C085
:1001F000C0FF04C08CB1809371030EC0CC2364F4A3
:100200008CB18A3011F08D3029F490916E039053A7
:100210009093600080936E03C4FF13C08CB1813350
:1002200031F4C460CF7ECB60C093720391C082333F
:1002300009F08EC0C460CF7ECA60CE7FC0937203C7
:1002400087C08C2F8870C3FF3FC080E1E3E8F3E0F4
:10025000DF011D928A95E9F780916D038F3008F0D8
:1002600077C08CB1882321F08A3011F08D3001F5F0
:10027000E0916D03F0E0E35AFC4F108210926D03A1
:100280006DE573E083E893E00E946B1380E1EDE598
:10029000F3E0DF01982F1D929A95E9F7EDE4F3E082
:1002A000DF011D928A95E9F7C77FC093720350C0A2
:1002B000E0916D03F0E0E35AFC4F808380916D0381
:1002C0008F5F80936D0344C0811142C080E1E3E7FA
:1002D000F3E0DF011D928A95E9F780914C038F309E
:1002E000B8F58CB1882321F08A3011F08D3029F5D2
:1002F000E0914C03F0E0E35BFC4F108210924C0362
:100300006DE473E083E793E00E946B1380E1EDE41A
:10031000F3E0DF01982F1D929A95E9F7EDE5F3E000
:10032000DF011D928A95E9F7C860C093720380913E
:100330009A038F5F80939A030BC0E0914C03F0E027
:10034000E35BFC4F808380914C038F5F80934C0371
:10035000CF9108958091720385FF09C080FD07C089
:10036000109271030E9414088093710319C084FFD6
:1003700017C00E941408813341F480917203846095
:100380008F7E8B60809372030BC0823309F03AC179
:100390008091720384608F7E8A608E7F8093720367
:1003A000809199038D3118F00E94690906C08091EF
:1003B0009903853110F40E9464092091720320FF93
:1003C0009BC0E09171038E2F90E0FC01F197E63124
:1003D000F10508F017C1E65DFF4F0C943C1281E077
:1003E0000E94EB0B0E947A0981E00E9483090E941F
:1003F000900980916F03816080936F03089581E07D
:100400000E94EB0B0E947A0982E00E9483090E94FD
:10041000900980916F038E7F80936F030895809180
:100420006F03826080936F03089580916F038D7FC7
:1004300080936F03089580E20E94720980916F0398
:10044000846080936F03089580E20E947609809112
:100450006F038B7F80936F03089581E20E9472097E
:1004600080916F03886080936F03089581E20E94FA
:10047000760980916F03877F80936F03089582E2EE
:100480000E94720980916F03806180936F030895C9
:1004900082E20E94760980916F038F7E80936F03C2
:1004A000089583E20E94720980916F0380628093B5
:1004B0006F03089583E20E94760980916F038F7D18
:1004C00080936F03089584E20E94720980916F0304
:1004D000806480936F03089584E20E94760980917E
:1004E0006F038F7B80936F0308952F7D10927103AC
:1004F0002068209372030895E09171038E2F90E09D
:10050000FC01F197E331F10508F07CC0E05CFF4F9E
:100510000C943C1281E00E94EB0B0E947A0982E06D
:100520000E9483090E94900980916F038E7F8093BF
:100530006F03089580E20E94720980916F038460C6
:1005400080936F03089580E20E94760980916F0383
:100550008B7F80936F03089581E20E9472098091DE
:100560006F03886080936F03089581E20E9476098B
:1005700080916F03877F80936F03089582E20E94CA
:10058000720980916F03806180936F03089582E206
:100590000E94760980916F038F7E80936F03089588
:1005A00083E20E94720980916F03806280936F03DF
:1005B000089583E20E94760980916F038F7D809376
:1005C0006F03089584E20E94720980916F03806432
:1005D00080936F03089584E20E94760980916F03EF
:1005E0008F7B80936F0308950E943F0980E990E01C
:1005F0000E942C098091720380688F7D8093720322
:100600001092710308950E943F0985E990E00E94CD
:100610002C0960E081E00E94430986EA90E00E9494
:100620002C092FEF83ED90E3215080409040E1F7BB
:1006300000C000000E943F098FEA90E00E942C0950
:100640002FEF83ED90E3215080409040E1F700C010
:10065000000002C00E94BF0780919A038330D0F748
:100660000895CF930E943F098FE39CE90197F1F72A
:1006700000C0000060E080E00E94430989EB90E048
:100680000E942C0960E081E00E94430980916F0381
:1006900082FF05C088ED90E00E942C0904C08CED1B
:1006A00090E00E942C0980916F0383FF05C088EDC4
:1006B00090E00E942C0904C08CED90E00E942C096F
:1006C00080916F0384FF05C088ED90E00E942C09A3
:1006D00004C08CED90E00E942C0980916F0384FF90
:1006E00005C088ED90E00E942C0904C08CED90E0DC
:1006F0000E942C0980916F0386FF05C088ED90E071
:100700000E942C0904C08CED90E00E942C098EE21E
:100710000E94E70A813029F488ED90E00E942C09BC
:1007200004C08CED90E00E942C0980EE90E00E94C5
:100730002C0980916F0380FF06C089EE90E00E9433
:100740002C09C0E011C080EF90E00E942C09F9CF85
:100750000E945B099FEF21EE84E091502040804091
:10076000E1F700C00000CF5FCF3090F3CF91089544
:10077000CF93DF93CDB7DEB7A2970FB6F894DEBF65
:100780000FBECDBF0E94B40B8AEA91E00E94BF0B5E
:100790000E94D3070E946E0C83EF90E00E94B60C7B
:1007A0000E94F0080E94BA070E947A090E949309E9
:1007B00080E20E946E0981E20E946E0982E20E943C
:1007C0006E0983E20E946E0984E20E946E098091A4
:1007D00072038B7F80618093720381E00E94EB0B38
:1007E0000E947A0982E00E9483090E9490090E9477
:1007F0005F0978948091720382FD24C060E080E0FC
:100800000E94430987EF90E00E942C0987EF90E057
:100810000E94970C60E081E00E94430988E091E02B
:100820000E942C0988E091E00E94970C04C00E946D
:100830009609809399038091720382FFF8CF0E94FA
:100840003F0971C181FF6FC160E080E00E944309F0
:1008500089E191E00E942C0960E081E00E94430957
:1008600088E291E00E942C0987E391E00E94970CB6
:100870001A8A198A8EE0FE017396DF01282F1D92D5
:100880002A95E9F71A8219827097DF011D928A95DD
:10089000E9F71AA219A241C10E949609809399030F
:1008A0008091720380FD97C0982F987083FF48C095
:1008B00080917003811144C081E1E3E8F3E0DF013E
:1008C0001D928A95E9F70E941408182F0E948D0C3A
:1008D000113419F58AA18E010F5E1F4FF801E80F40
:1008E000F11D10821AA2B80183E893E00E946B13F5
:1008F00080E1F801282F11922A95E9F7FE0131963F
:10090000DF011D928A95E9F780917203877F8093BA
:10091000720381E0809370035EC0111105C0B5E3DE
:10092000BA95F1F7000057C08AA1E1E1F0E0EC0FC1
:10093000FD1FE80FF11D10838AA18F5F8AA34BC0B2
:10094000911149C080917003813009F044C080E169
:10095000E3E7F3E0DF011D928A95E9F70E941408AE
:10096000813439F589A18E010F5F1F4FF801E80F1F
:10097000F11D108219A2B80183E793E00E946B1366
:1009800080E1F801282F11922A95E9F7FE0171966E
:10099000DF011D928A95E9F7809172038860809348
:1009A000720380919A038F5F80939A031092700371
:1009B00012C0811105C0B5E3BA95F1F700000BC074
:1009C00099A1E1E0F0E0EC0FFD1FE90FF11D80833C
:1009D00089A18F5F89A380918303882309F49DC037
:1009E00080917303882309F498C01091720310FF5B
:1009F00019C069E770E083E893E00E947613892BC1
:100A000071F464E770E083E793E00E947613892B2A
:100A100031F41D7F1093720310929A037EC00E94DE
:100A200003037BC06DE670E083E893E00E947613D9
:100A3000892B49F46FE670E083E793E00E94761318
:100A4000892B09F462C06BE670E083E893E00E94B2
:100A50007613892B49F46FE670E083E793E00E94F8
:100A60007613892B09F451C069E670E083E893E0BE
:100A70000E947613892B49F46FE670E083E793E0D8
:100A80000E947613892B09F440C067E670E083E882
:100A900093E00E947613892B41F46FE670E083E7C0
:100AA00093E00E947613892B81F165E670E083E87C
:100AB00093E00E947613892B41F46FE670E083E7A0
:100AC00093E00E947613892B01F163E670E083E8DE
:100AD00093E00E947613892B41F46FE670E083E780
:100AE00093E00E947613892B81F061E670E083E841
:100AF00093E00E947613892B71F46FE670E083E730
:100B000093E00E947613892B31F41D7F10937203BA
:100B100010929A0302C00E9403038091720381FD28
:100B2000BBCE0E943F0910917203812F817010FF8C
:100B300078C069E770E083E893E00E94761300973D
:100B400009F058CE892B09F055CE64E770E083E7B1
:100B500093E00E947613892B09F04CCE106210931B
:100B6000720388E591E00E94970C80E991E00E9471
:100B7000970C81EC91E00E94970C89EF91E00E9424
:100B8000970C8DE292E00E94970C82E692E00E9420
:100B9000970C88E591E00E94970C8091720388235E
:100BA000CCF580916000843629F48AE992E00E94B5
:100BB000970C27C00E943F0982E00E94EB0B0E9425
:100BC000C4076091600070E080E090E00E94850DB5
:100BD00020E030E040E151E40E94E20C20E030E00F
:100BE00048EC52E40E94110E0E94540DCB010E9469
:100BF000CD070E94D007809172038F778062809327
:100C00007203EFE3FCE93197F1F700C0000084E6DE
:100C1000809360000E949609809399030E9431039B
:100C2000BCCF8111E7CD6DE670E083E893E00E94D0
:100C30007613892B49F46FE670E083E793E00E9416
:100C40007613892B09F41DC16BE670E083E893E00D
:100C50000E947613892B49F46FE670E083E793E0F6
:100C60000E947613892B09F40CC169E670E083E8D1
:100C700093E00E947613892B49F46FE670E083E7D6
:100C800093E00E947613892B09F4FBC067E670E0BD
:100C900083E893E00E947613892B49F46FE670E0B5
:100CA00083E793E00E947613892B09F4EAC065E696
:100CB00070E083E893E00E947613892B49F46FE695
:100CC00070E083E793E00E947613892B09F4D9C082
:100CD00063E670E083E893E00E947613892B49F481
:100CE0006FE670E083E793E00E947613892B09F4A6
:100CF000C8C061E670E083E893E00E947613892B18
:100D000009F078CD6FE670E083E793E00E947613F8
:100D1000892B09F4B6C06ECD8091720380628093F6
:100D200072030E9496098093990360E080E00E941C
:100D300043098AEB92E00E942C0960E081E00E9466
:100D4000430988EC92E00E942C09FFEF23ED80E339
:100D5000F15020408040E1F700C000000E943F09B0
:100D600060E080E00E9443098BED92E00E942C0934
:100D700060E081E00E9443098EEE92E00E942C091F
:100D80009FEFA3EDB0E39150A040B040E1F700C069
:100D900000000E943F0960E080E00E94430981E07A
:100DA00093E00E942C0960E081E00E94430984E105
:100DB00093E00E942C09EFEFF3ED20E3E150F040C7
:100DC0002040E1F700C000000E943F0960E080E0A1
:100DD0000E94430987E293E00E942C098FEF93ED74
:100DE000A0E381509040A040E1F700C000000E94C5
:100DF0003F098091720388230CF043C08AE393E09B
:100E00000E942C0960E081E00E9443098DEA92E093
:100E10000E942C0904C00E941408809360008091F5
:100E200060008436C1F38823B1F3809172038F7719
:100E300080628093720382E00E94EB0B0E94C407E1
:100E40006091600070E060537109072E000C880B00
:100E5000990B0E94850D20E030E040E151E40E94B2
:100E6000E20C20E030E048EC52E40E94110E0E94B7
:100E7000540DCB010E94CD070E94D00784E68093D9
:100E800060006DE670E083E893E00E947613892BA2
:100E900049F46FE670E083E793E00E947613892BB4
:100EA00009F43ACF6BE670E083E893E00E94761392
:100EB000892B49F46FE670E083E793E00E94761394
:100EC000892B09F429CF69E670E083E893E00E945A
:100ED0007613892B49F46FE670E083E793E00E9474
:100EE0007613892B09F418CF67E670E083E893E066
:100EF0000E947613892B49F46FE670E083E793E054
:100F00000E947613892B09F407CF65E670E083E829
:100F100093E00E947613892B49F46FE670E083E733
:100F200093E00E947613892B09F4F6CE63E670E015
:100F300083E893E00E947613892B49F46FE670E012
:100F400083E793E00E947613892B09F4E5CE61E6EE
:100F500070E083E893E00E947613892B09F04ACC75
:100F60006FE670E083E793E00E947613892B09F423
:100F7000D3CE40CC61E08FE20E94D509089561E0B4
:100F80008FE20E945E0A08950E94EE0B62E370E019
:100F900080E090E00E94140C08950E94320C0895A5
:100FA0000E946B0C089561E084E10E94D50961E024
:100FB00085E10E94D50961E086E10E94D50961E0E2
:100FC00087E10E94D50962E088E10E94D50962E0CC
:100FD00089E10E94D50962E08AE10E94D50962E0B8
:100FE0008BE10E94D50961E084E10E945E0A61E024
:100FF00085E10E945E0A61E086E10E945E0A61E08E
:1010000087E10E945E0A61E088E10E942B0B61E0AB
:1010100089E10E942B0B61E08AE10E942B0B61E0C9
:101020008BE10E942B0B0895FF920F931F93CF9398
:10103000DF93CDB7DEB760970FB6F894DEBF0FBE73
:10104000CDBF80E1E0E8F0E0DE01119601900D9265
:101050008A95E1F704E1F12C38C062E0802F0E940C
:101060005E0A18E12BC0812F0E94E70A811125C07A
:101070008FE99FE00197F1F700C00000812F0E94E7
:10108000E70A81111AC0802F90E04497212F30E0A9
:1010900028513109880F991F880F991F41E050E0AE
:1010A0004C0F5D1F840F951FFC01E20FF31FF080B2
:1010B000812F0E94E70A8823D9F31F5F1C3198F221
:1010C00061E0802F0E945E0A0F5F083130F28F2DA1
:1010D00060960FB6F894DEBF0FBECDBFDF91CF9103
:1010E0001F910F91FF900895CF93C82F61E08BE07F
:1010F0000E945E0A8BB39C2F907F8F70892B8BBBD5
:1011000061E08DE00E945E0A8FE99FE00197F1F7B0
:1011100000C0000062E08DE00E945E0A8FE99FE05F
:101120000197F1F700C0000020E1C29FC001112427
:101130009BB39F70892B8BBB61E08DE00E945E0AA0
:101140008FE99FE00197F1F700C0000062E08DE0B9
:101150000E945E0A8FE19EE40197F1F700C0000053
:10116000CF910895CF93C82F62E08BE00E945E0A72
:101170008BB39C2F907F8F70892B8BBB61E08DE0B0
:101180000E945E0A8FE99FE00197F1F700C000001E
:1011900062E08DE00E945E0A8FE99FE00197F1F71F
:1011A00000C0000020E1C29FC00111249BB39F70CA
:1011B000892B8BBB61E08DE00E945E0A8FE99FE086
:1011C0000197F1F700C0000062E08DE00E945E0A26
:1011D0008FE19EE40197F1F700C00000CF910895E0
:1011E00061E08EE00E94D50961E08FE00E94D509A0
:1011F00061E080E10E94D50961E081E10E94D509AA
:1012000061E08BE00E94D50961E08DE00E94D50984
:1012100061E08CE00E94D50962E08CE00E945E0AE9
:101220002FEF81EE94E0215080409040E1F700C024
:10123000000083E30E94B20882E30E94B20888E2C1
:101240000E94B2088CE00E94B20881E00E94B208BD
:1012500082E00E94B20808950F931F93CF938C01F0
:10126000C0E003C00E947408CF5FF801EC0FF11DCD
:1012700080818111F7CFCF911F910F91089581E067
:101280000E94B2080895CF93DF9300D0CDB7DEB7A8
:1012900090E8998390EC9A83E1E0F0E0EC0FFD1F79
:1012A000E80FF11D8081860F0E94B2080F900F9009
:1012B000DF91CF91089588E10E94B208089561E01E
:1012C0008EE20E94D509089562E08EE20E945E0AD5
:1012D000089561E08EE20E945E0A089561E00E9436
:1012E000D509089561E00E945E0A089562E00E94B7
:1012F0005E0A08950E94EE0B62E370E080E090E0E9
:101300000E94140C0895813019F0823029F008955C
:1013100085E00E94320C08958AE00E94320C089504
:101320000E946B0C08950E94A50908950E94CD09A2
:101330009C01AEEFB1E00E9442122FEF33E040E09B
:1013400050E00E94FB11822F089587B1806487B915
:1013500087B18F7787B987B18F7D87B987B18E7F46
:1013600087B987B18D7F87B987B18B7F87B987B1FF
:10137000877F87B987B18F7E87B986B1816086B94B
:1013800086B1826086B986B1846086B986B1806292
:1013900086B986B1806886B9089586B1806486B9B9
:1013A000349BFECF84B195B108959DEC899F912D1A
:1013B0001124292F269526952695220F322F330F9B
:1013C000330F230F821B282F9695969596956130A3
:1013D00019F06230C1F108959230A1F018F4913003
:1013E00031F008959330C9F0943011F108953AB373
:1013F00081E090E002C0880F991F2A95E2F7832BC5
:101400008ABB089537B381E090E002C0880F991F2E
:101410002A95E2F7832B87BB089534B381E090E0EF
:1014200002C0880F991F2A95E2F7832B84BB089589
:1014300031B381E090E002C0880F991F2A95E2F74E
:10144000832B81BB08959230A9F018F4913031F0CC
:1014500008959330D9F0943029F108953AB381E09A
:1014600090E002C0880F991F2A95E2F780958323A8
:101470008ABB089537B381E090E002C0880F991FBE
:101480002A95E2F78095832387BB089534B381E0E2
:1014900090E002C0880F991F2A95E2F78095832378
:1014A00084BB089531B381E090E002C0880F991F9A
:1014B0002A95E2F78095832381BB08959DEC899F4F
:1014C000912D1124292F269526952695220F322F0E
:1014D000330F330F230F821B282F969596959695E1
:1014E000613019F06230C1F108959230A1F018F422
:1014F000913031F008959330C9F0943011F108958E
:101500003BB381E090E002C0880F991F2A95E2F773
:10151000832B8BBB089538B381E090E002C0880F25
:10152000991F2A95E2F7832B88BB089535B381E094
:1015300090E002C0880F991F2A95E2F7832B85BBA4
:10154000089532B381E090E002C0880F991F2A9578
:10155000E2F7832B82BB08959230A9F018F4913002
:1015600031F008959330D9F0943029F108953BB3C8
:1015700081E090E002C0880F991F2A95E2F78095DC
:1015800083238BBB089538B381E090E002C0880FBD
:10159000991F2A95E2F78095832388BB089535B378
:1015A00081E090E002C0880F991F2A95E2F78095AC
:1015B000832385BB089532B381E090E002C0880F99
:1015C000991F2A95E2F78095832382BB08959DECAD
:1015D000899F912D1124292F269526952695220F36
:1015E000322F330F330F230F821B282F892F86951D
:1015F00086958695823091F018F4813031F029C0BB
:101600008330A9F08430E1F024C089B390E002C0B7
:10161000959587952A95E2F78170089586B390E0B5
:1016200002C0959587952A95E2F78170089583B356
:1016300090E002C0959587952A95E2F7817008950C
:1016400080B390E002C0959587952A95E2F7817066
:10165000089580E008959DEC899F912D1124292FF4
:10166000269526952695220F322F330F330F230F01
:10167000821B282F969596959695613019F06230C9
:10168000C1F108959230A1F018F4913031F008952D
:101690009330C9F0943011F108953BB381E090E0AC
:1016A00002C0880F991F2A95E2F7832B8BBB089500
:1016B00038B381E090E002C0880F991F2A95E2F7C5
:1016C000832B88BB089535B381E090E002C0880F7A
:1016D000991F2A95E2F7832B85BB089532B381E0E9
:1016E00090E002C0880F991F2A95E2F7832B82BBF6
:1016F00008959230A9F018F4913031F008959330A4
:10170000D9F0943029F108953BB381E090E002C014
:10171000880F991F2A95E2F7809583238BBB089544
:1017200038B381E090E002C0880F991F2A95E2F754
:101730008095832388BB089535B381E090E002C093
:10174000880F991F2A95E2F78095832385BB08951A
:1017500032B381E090E002C0880F991F2A95E2F72A
:101760008095832382BB089589EF8CBF88E283BF75
:1017700083B7836083BF89B7826089BF08959093E0
:1017800095038093940308951F920F920FB60F92C2
:1017900011242F933F934F935F936F937F938F9376
:1017A0009F93AF93BF93EF93FF93E0919403F091D6
:1017B00095030995FF91EF91BF91AF919F918F9103
:1017C0007F916F915F914F913F912F910F900FBE3D
:1017D0000F901F9018958093960308958FB58E7F74
:1017E0008FBD8FB582608FBD8EB588608EBD8EB582
:1017F00080618EBD80919603813051F481B3806207
:1018000081BB8FB580688FBD8FB58F7B8FBD0895ED
:10181000823049F481B3806181BB8FB580628FBD16
:101820008FB58F7E8FBD0895CF92DF92EF92FF929A
:101830006B017C0120917F0030E040E050E060E0EF
:1018400074E284EF90E00E941D12CA01B901A70161
:1018500096010E94FB1137BD26BDFF90EF90DF90EF
:10186000CF900895482F809196038130A1F426B53A
:1018700037B53695279536952795ABE7B4E10E94A5
:10188000421296958795489F9001499F300D1124EB
:101890003BBD2ABD0895823099F426B537B53695FB
:1018A000279536952795ABE7B4E10E9442129695AD
:1018B0008795489F9001499F300D112439BD28BD5F
:1018C00008958EB582608EBD8EB581608EBD8EB559
:1018D0008B7F8EBD08950E94610C089581B38E7F29
:1018E00081BB81B3826081BB8AB18B7F8AB986E874
:1018F00080BD87E689B910BC8AB180688AB98AB18F
:1019000080618AB98AB188608AB978948FE39CE94A
:101910000197F1F700C0000008959AB19F7E9AB92F
:101920005D9BFECF8CB98AB180618AB908950F930F
:101930001F93CF938C01C0E009C00E948D0CCF5F34
:101940008FE99FE00197F1F700C00000F801EC0F6C
:10195000F11D80818111F1CF8AE00E948D0C8DE014
:101960000E948D0CCF911F910F9108959093980331
:101970008093970308951F920F920FB60F92112430
:101980002F933F934F935F936F937F938F939F9387
:10199000AF93BF93EF93FF93E0919703F091980378
:1019A0000995FF91EF91BF91AF919F918F917F9199
:1019B0006F915F914F913F912F910F900FBE0F90BC
:1019C0001F9018950E94F60C0C94D70D0E94D00D14
:1019D00058F00E94C90D40F029F45F3F29F00C94A3
:1019E000C00D51110C940B0E0C94C60D0E94E80D05
:1019F00068F39923B1F3552391F3951B550BBB273E
:101A0000AA2762177307840738F09F5F5F4F220F82
:101A1000331F441FAA1FA9F335D00E2E3AF0E0E879
:101A200032D091505040E695001CCAF72BD0FE2FC3
:101A300029D0660F771F881FBB1F26173707480757
:101A4000AB07B0E809F0BB0B802DBF01FF2793580F
:101A50005F4F3AF09E3F510578F00C94C00D0C9406
:101A60000B0E5F3FE4F3983ED4F386957795679528
:101A7000B795F7959F5FC9F7880F911D9695879544
:101A800097F90895E1E0660F771F881FBB1F621763
:101A900073078407BA0720F0621B730B840BBA0B21
:101AA000EE1F88F7E09508950E94F00D88F09F578B
:101AB00098F0B92F9927B751B0F0E1F0660F771F72
:101AC000881F991F1AF0BA95C9F714C0B13091F068
:101AD0000E940A0EB1E008950C940A0E672F782F29
:101AE0008827B85F39F0B93FCCF38695779567952D
:101AF000B395D9F73EF490958095709561957F4F99
:101B00008F4F9F4F0895E89409C097FB3EF490953E
:101B10008095709561957F4F8F4F9F4F9923A9F0C6
:101B2000F92F96E9BB279395F69587957795679555
:101B3000B795F111F8CFFAF4BB0F11F460FF1BC099
:101B40006F5F7F4F8F4F9F4F16C0882311F096E92C
:101B500011C0772321F09EE8872F762F05C06623DA
:101B600071F096E8862F70E060E02AF09A95660F93
:101B7000771F881FDAF7880F9695879597F908954C
:101B800097F99F6780E870E060E008959FEF80EC30
:101B9000089500240A9416161706180609060895D3
:101BA00000240A9412161306140605060895092E39
:101BB0000394000C11F4882352F0BB0F40F4BF2BA8
:101BC00011F460FF04C06F5F7F4F8F4F9F4F0895E8
:101BD00057FD9058440F551F59F05F3F71F04795DE
:101BE000880F97FB991F61F09F3F79F087950895C3
:101BF000121613061406551FF2CF4695F1DF08C0E2
:101C0000161617061806991FF1CF869571056105FE
:101C100008940895E894BB2766277727CB0197F9A6
:101C200008950E94240E0C94D70D0E94C90D38F01F
:101C30000E94D00D20F0952311F00C94C00D0C944F
:101C4000C60D11240C940B0E0E94E80D70F3959FA5
:101C5000C1F3950F50E0551F629FF001729FBB27A3
:101C6000F00DB11D639FAA27F00DB11DAA1F649F3F
:101C70006627B00DA11D661F829F2227B00DA11DF2
:101C8000621F739FB00DA11D621F839FA00D611D78
:101C9000221F749F3327A00D611D231F849F600D99
:101CA000211D822F762F6A2F11249F5750409AF0C2
:101CB000F1F088234AF0EE0FFF1FBB1F661F771F4E
:101CC000881F91505040A9F79E3F510580F00C9419
:101CD000C00D0C940B0E5F3FE4F3983ED4F3869551
:101CE00077956795B795F795E7959F5FC1F7FE2BB9
:101CF000880F911D9695879597F90895A0E1B0E01A
:101D0000E4E8FEE00C9451127C011B016A01FC0125
:101D100017821682838181FF44C39E012F5F3F4F4C
:101D20003901F7019381F10193FD859193FF819131
:101D30001F01882309F431C3853239F493FD85915D
:101D400093FF81911F01853239F4B70190E00E9421
:101D50008A1356016501E5CF10E0512C912CFFE16B
:101D6000F915D8F08B3279F038F4803279F083327B
:101D7000A1F4F92DF0612EC08D3261F0803369F449
:101D8000292D21602DC0392D3260932E892D84603C
:101D9000982E2AC0E92DE86015C097FC2DC020EDD3
:101DA000280F2A3088F496FE06C03AE0139F200DD3
:101DB0001124122F19C08AE0589E200D1124522E92
:101DC000E92DE0629E2E10C08E3231F496FCE5C201
:101DD000F92DF0649F2E08C08C3621F4292D20683F
:101DE000922E02C0883641F4F10193FD859193FF54
:101DF00081911F018111B3CF9BEB980F933020F499
:101E0000992D9061805E07C09BE9980F933008F090
:101E100066C1992D9F7E96FF16E09F73992E853699
:101E200019F49064992E08C0863621F4392F306851
:101E3000932E02C01111115097FE07C01C3350F4AD
:101E400044244394410E27E00BC0183038F027E0BB
:101E500017E005C027E09CE3492E02C0212F412C4A
:101E6000560184E0A80EB11CF60160817181828167
:101E70009381042DA3010E9488126C01F981FC87D3
:101E8000F0FF02C0F3FF06C091FC06C092FE06C040
:101E900000E205C00DE203C00BE201C000E08C854A
:101EA0008C7019F001115AC29BC297FE10C04C0CE5
:101EB000FC85F4FF04C08A81813309F44A94141428
:101EC00074F528E0241578F588E0482E2CC096FC9F
:101ED0002AC0812F90E08C159D059CF03CEFC31625
:101EE0003FEFD30674F0892D8068982E0AC0E2E097
:101EF000F0E0EC0FFD1FE10FF11D8081803319F43C
:101F000011501111F4CF97FE0EC044244394410E9A
:101F1000812F90E0C816D9062CF41C1904C0442463
:101F2000439401C010E097FE06C01C141D0434F455
:101F3000C601019605C085E090E002C081E090E016
:101F400001110196112331F0212F30E02F5F3F4F17
:101F5000820F931F252D30E08217930714F4581A2F
:101F600001C0512C892D897049F4552039F0B701F1
:101F700080E290E00E948A135A94F7CF002329F060
:101F8000B701802F90E00E948A1393FC09C055206E
:101F900039F0B70180E390E00E948A135A94F7CF9A
:101FA00097FE4CC04601D7FE02C0812C912CC60181
:101FB00088199909F301E80FF91FFE87ED8796014B
:101FC00024193109388B2F87012F10E011950195C5
:101FD00011093FEF8316930629F4B7018EE290E0D2
:101FE0000E948A13C814D9044CF08F8598898815EB
:101FF000990524F4ED85FE85818101C080E3F1E03F
:102000008F1A91082D853E852F5F3F4F3E872D8784
:10201000801691062CF0B70190E00E948A13D9CF68
:10202000C814D90441F49A81963320F4953319F4F5
:102030003C8534FF81E3B70190E04EC08A81813353
:1020400019F09C859F7E9C87B70190E00E948A13BF
:10205000111105C094FC18C085E690E017C0B701C7
:102060008EE290E00E948A131E5F82E001E0080F7A
:10207000F301E80FF11D8081B70190E00E948A13FF
:10208000802F0113F3CFE6CF85E490E0B7010E94E3
:102090008A13D7FC06C0C114D10441F4EC85E4FFD7
:1020A00005C0D194C194D1088DE201C08BE2B70183
:1020B00090E00E948A1380E32AE0C216D1042CF03B
:1020C0008F5FFAE0CF1AD108F7CFB70190E00E94F6
:1020D0008A13B701C601C0960E948A1354C1833681
:1020E00031F0833779F0833509F056C020C05601AE
:1020F00032E0A30EB11CF6018081898301E010E07B
:10210000630112C05601F2E0AF0EB11CF601C080AF
:10211000D18096FE03C0612F70E002C06FEF7FEFA9
:10212000C6010E947F138C01F92DFF7714C0560160
:1021300022E0A20EB11CF601C080D18096FE03C041
:10214000612F70E002C06FEF7FEFC6010E94601345
:102150008C01F92DF0689F2EF3FD1AC0852D90E0BB
:1021600008171907A8F4B70180E290E00E948A13CB
:102170005A94F4CFF60197FC859197FE81916F01F7
:10218000B70190E00E948A1351105A94015011092E
:102190000115110579F7F7C0843611F0893661F51C
:1021A000560197FE09C024E0A20EB11CF601608121
:1021B0007181828193810AC0F2E0AF0EB11CF601F9
:1021C00060817181072E000C880B990BF92DFF7629
:1021D0009F2E97FF09C090958095709561957F4FD0
:1021E0008F4F9F4FF0689F2E2AE030E0A3010E949E
:1021F000C613C82EC6183FC0092D853721F40F7E9F
:102200002AE030E01DC0097F8F3691F018F4883540
:1022100059F0C3C0803719F0883711F0BEC0006193
:1022200004FF09C0046007C094FE08C0066006C031
:1022300028E030E005C020E130E002C020E132E0DB
:10224000560107FF09C084E0A80EB11CF6016081A9
:1022500071818281938108C0F2E0AF0EB11CF6015A
:102260006081718180E090E0A3010E94C613C82EB6
:10227000C6180F77902E96FE0BC0092D0E7FC11643
:1022800050F494FE0AC092FC08C0092D0E7E05C0D1
:10229000DC2C092D03C0DC2C01C0D12E04FF0DC0A5
:1022A000FE01EC0DF11D8081803311F4097E09C01F
:1022B00002FF06C0D394D39404C0802F867809F01F
:1022C000D39403FD11C000FF06C01C2DD51480F46B
:1022D000150D1D190DC0D51458F4B70180E290E01A
:1022E0000E948A13D394F7CFD51410F45D1801C05F
:1022F000512C04FF10C0B70180E390E00E948A13C4
:1023000002FF17C001FD03C088E790E002C088E526
:1023100090E0B7010CC0802F867859F001FF02C011
:102320008BE201C080E207FD8DE2B70190E00E94E0
:102330008A13C11638F4B70180E390E00E948A1333
:102340001150F7CFCA94F301EC0DF11D8081B70154
:1023500090E00E948A13C110F5CF15C0F4E0F51586
:1023600060F584E0581A93FE1FC0011127C02C8528
:1023700023FF2AC006EA10E0392D3071932EF801B0
:102380008491811124C0552009F4E4CCB70180E286
:1023900090E00E948A135A94F6CFF70186819781C4
:1023A00026C08FEF9FEF23C0B70180E290E00E942C
:1023B0008A135A945110F8CFD8CF512CB701802FDF
:1023C00090E00E948A13D3CF0AEA10E0D5CF911093
:1023D0008052B70190E00E948A130F5F1F4FCFCF4A
:1023E00023E0251510F483E0BDCF512CC0CF6096BB
:1023F000E2E10C946D12A1E21A2EAA1BBB1BFD0197
:102400000DC0AA1FBB1FEE1FFF1FA217B307E407D3
:10241000F50720F0A21BB30BE40BF50B661F771F2B
:10242000881F991F1A9469F760957095809590950B
:102430009B01AC01BD01CF010895052E97FB1EF451
:1024400000940E94341257FD07D00E94FB1107FC34
:1024500003D04EF40C94341250954095309521954C
:102460003F4F4F4F5F4F08959095809570956195C0
:102470007F4F8F4F9F4F0895EE0FFF1F0590F491F0
:10248000E02D0994A29FB001B39FC001A39F700DDE
:10249000811D1124911DB29F700D811D1124911D6C
:1024A00008952F923F924F925F926F927F928F92F8
:1024B0009F92AF92BF92CF92DF92EF92FF920F93D3
:1024C0001F93CF93DF93CDB7DEB7CA1BDB0B0FB6DD
:1024D000F894DEBF0FBECDBF09942A88398848889A
:1024E0005F846E847D848C849B84AA84B984C88430
:1024F000DF80EE80FD800C811B81AA81B981CE0F27
:10250000D11D0FB6F894DEBF0FBECDBFED0108950B
:10251000283008F027E03327DA01990F311D87FDB5
:10252000916000966105710539F432602E5F3D932C
:1025300030E32A95E1F708959F3F30F08038710528
:10254000610509F03C5F3C5F3D93913008F0806885
:10255000911DDF93CF931F930F93FF92EF92192F4B
:10256000987F9695E92F96959695E90FFF27E85F56
:10257000FE4F99273327EE24FF24A701E70105909A
:102580000894079428F4360FE71EF81E491F511DC2
:10259000660F771F881F991F0694A1F7059007946F
:1025A00028F4E70EF81E491F561FC11D770F881F1C
:1025B000991F661F0694A1F70590079428F4F80E5A
:1025C000491F561FC71FD11D880F991F661F771FF0
:1025D0000694A1F70590079420F4490F561FC71FD2
:1025E000D81F990F661F771F881F0694A9F784913B
:1025F0001095177041F0D695C79557954795F79464
:10260000E7941A95C1F7EEEAF0E0689415901591F9
:1026100035916591959105907FE27395E118F10AE6
:10262000430B560BC90BD009C0F7E10CF11E431F39
:10263000561FC91FD01D7EF4703311F48A95E6CF62
:10264000E894015030F0080F0AF40027021708F44C
:10265000202F2395022F7A3328F079E37D932A9552
:10266000E9F710C07D932A9589F6069497956795AA
:10267000379517951794E118F10A430B560BC90BC0
:10268000D00998F023957E9173957A3308F070E322
:102690007C932013B8F77E9170617D9330F0839521
:1026A00071E37D9370E32A95E1F71124EF90FF9099
:1026B0000F911F91CF91DF91992787FD90950895F4
:1026C000FC010590615070400110D8F780959095FD
:1026D0008E0F9F1F0895FB01DC010D900020E9F78C
:1026E000119701900D920020E1F70895FB01DC01A4
:1026F0008D91019080190110D9F3990B0895FC0177
:102700006150704001900110D8F7809590958E0F20
:102710009F1F08950F931F93CF93DF93FB01238196
:1027200021FD03C08FEF9FEF2CC022FF16C0468112
:102730005781248135814217530744F4A081B18128
:102740009D012F5F3F4F318320838C9326813781FA
:102750002F5F3F4F3783268314C08B01EC01FB01B1
:102760000084F185E02D0995892BE1F6D8011696B4
:102770008D919C911797019617969C938E9316971F
:10278000CE01DF91CF911F910F910895FA01AA27F1
:10279000283051F1203181F1E8946F936E7F6E5FA4
:1027A0007F4F8F4F9F4FAF4FB1E03ED0B4E03CD052
:1027B000670F781F891F9A1FA11D680F791F8A1F35
:1027C000911DA11D6A0F711D811D911DA11D20D09C
:1027D00009F468943F912AE0269F11243019305D56
:1027E0003193DEF6CF010895462F4770405D419347
:1027F000B3E00FD0C9F7F6CF462F4F70405D4A3394
:1028000018F0495D31FD4052419302D0A9F7EACF5B
:10281000B4E0A6959795879577956795BA95C9F78A
:1028200000976105710508959B01AC010A2E06947D
:102830005795479537952795BA95C9F7620F731F36
:0C284000841F951FA01D0895F894FFCF81
:10284C006437003600350034003300320031003577
:10285C003433320031323334004D616864790040D6
:10286C003738394134353642313233432A302344F8
:10287C0057616974004572726F7220696E207573AE
:10288C006572206F720070617373776F726400549D
:10289C00727920416761696E004C31204C32204CBA
:1028AC0033204C34204C352041432044696D6D69F4
:1028BC006E6720446F6F72004F6E20004F6666008B
:1028CC004F66662020202020004F50454E45440086
:1028DC00434C4F53454400546F2041646D696E2046
:1028EC00656E7465723A3100546F205573657220B1
:1028FC0020656E7465723A3200456E7465722055AF
:10290C007365726E616D6500456E74657220506101
:10291C007373776F726400506C6561736520656EBC
:10292C007465722055736572200A20616E642050A4
:10293C00617373776F7264002F2A2A2A2A2A2A2A33
:10294C002A2A2A2A2A2A2A2A2A2A2A2A2A2A2A2ADB
:10295C002A2A2A2A2A2A2A2A2A2A2A2A2A2A2A2ACB
:10296C002A2A2A2A2A2A2A2A2A2A2A2A2A2A2F00E0
:10297C00312D206F70656E20646F6F72200A0D32DE
:10298C002D20636C6F736520646F6F72200A0D339A
:10299C002D20616464206E657720757365720A0D55
:1029AC0000342D2072656D6F7665206F6C64207518
:1029BC00736572200A0D352D207475726E2031737B
:1029CC0074206F6E200A0D362D207475726E2031B6
:1029DC007374206F66660A0D00372D207475726E45
:1029EC0020326E64206F6E200A0D382D20747572A3
:1029FC006E20326E64206F6666200A0D392D2074AD
:102A0C0075726E20337264206F6E0A0D00412D209A
:102A1C007475726E20337264206F6666200A0D42E4
:102A2C002D207475726E20347468206F6E200A0D20
:102A3C00432D207475726E20347468206F66660A9C
:102A4C000D00442D207475726E20357468206F6EE5
:102A5C00200A0D452D207475726E20357468206F18
:102A6C006666200A0D462D20636F6E74726F6C20A3
:102A7C0064696D6D696E670A0D00456E7465722030
:102A8C00496E74656E73697479200D0A2046726FF5
:102A9C006D203020746F20392000312D20636C6F35
:102AAC00736520646F6F7200322D6F6E20317374FA
:102ABC0020332D6F66662031737400342D6F6E20B9
:102ACC00326E6420352D6F666620326E6400362DB2
:102ADC006F6E2033726420372D6F666620337264FC
:102AEC0000382D6F6E2034746820392D6F66662087
:102AFC0034746800412D6F6E2035746820422D6F40
:102B0C0066662035746800432D20636F6E74726F97
:102B1C006C2064696D6D696E6700456E746572201A
:0C2B2C00496E74656E73697479200000B6
:00000001FF
